:020000040800F2
:10000000500B00204D0200084D2400084524000834
:1000100049240008F90300087128000800000000C6
:10002000000000000000000000000000552400084F
:10003000FD030008000000005124000859240008B6
:1000400067020008670200086702000867020008EC
:100050006702000867020008010400086702000840
:1000600067020008670200086702000867020008CC
:1000700067020008670200086702000867020008BC
:1000800067020008670200086702000867020008AC
:10009000670200086702000867020008670200089C
:1000A000670200086702000867020008670200088C
:1000B000212500086702000867020008670200089F
:1000C000670200086702000867020008670200086C
:1000D000670200086702000867020008670200085C
:1000E000670200086702000867020008670200084C
:1000F000670200086702000867020008670200083C
:10010000670200086702000867020008670200082B
:1001100067020008692600086702000867020008F5
:10012000670200086702000867020008670200080B
:1001300067020008670200086702000867020008FB
:1001400067020008670200086702000867020008EB
:1001500067020008670200086702000867020008DB
:1001600067020008670200086702000867020008CB
:10017000670200086702000867020008000000002C
:1001800067020008670200086702000867020008AB
:10019000670200086702000867020008670200089B
:1001A00067020008670200086702000800F002F812
:1001B00000F03CF80AA090E8000C82448344AAF1C5
:1001C0000107DA4501D100F031F8AFF2090EBAE8C3
:1001D0000F0013F0010F18BFFB1A43F0010318477B
:1001E000DC2B0000FC2B0000103A24BF78C878C13B
:1001F000FAD8520724BF30C830C144BF04680C602D
:10020000704700000023002400250026103A28BF74
:1002100078C1FBD8520728BF30C148BF0B60704778
:100220001FB502F0B1FD1FBD10B510BD00F0A9F85B
:100230001146FFF7F5FF02F07BFB00F0C7F803B4AF
:10024000FFF7F2FF03BC00F0CFF800000948804739
:1002500009480047FEE7FEE7FEE7FEE7FEE7FEE7A8
:10026000FEE7FEE7FEE7FEE704480549054A064BC0
:10027000704700000D250008AD0100085005002062
:10028000500B0020500700205007002053EA020CBA
:1002900000F069802DE9F04B4FF00006002B1FBFE6
:1002A000B3FA83F503FA05F424FA05F65E4012BFAB
:1002B0001643B2FA82F502FA05F4C5F120051EBF15
:1002C00022FA05FC44EA0C04203556EA044C4FEAB5
:1002D000144418BF641C4FF000084FF0000990420E
:1002E00071EB030C39D3002919BFB1FA81F701FA78
:1002F00007F6B0FA80F700FA07F6C7F120071EBF2D
:1003000020FA07FC46EA0C062037B6FBF4FCA7EB04
:100310000507103F07F01F0BCBF120062CFA06F65D
:100320000CFA0BFB44BFB3460026202FA4BF5E4649
:100330004FF0000B5BEA060C08BF4FF0010B19EB06
:100340000B0948EB0608ABFB027C06FB02CC0BFB5F
:1003500003CCC01B71EB0C01C1E70B4602464146C2
:100360004846BDE8F08B13B5084318BF4FF0FF3087
:100370000146AFF30080BDE81C40704770477047EE
:100380007047754600F02CF8AE46050069465346A6
:1003900020F00700854618B020B5FFF765FFBDE8DF
:1003A00020404FF000064FF000074FF000084FF0DC
:1003B000000BAC46ACE8C009ACE8C009ACE8C00929
:1003C000ACE8C00921F007018D46704710B504461E
:1003D000AFF300802046BDE81040FFF730BF0000BB
:1003E000004870471000002001491820ABBEFEE70E
:1003F0002600020070470000FEE700007047000082
:10040000012000F05DB8000070B5866D044600F074
:100410003DF994F83510022928D105462068216C51
:10042000026822F016020260426922F080024261F4
:1004300009B9A16C19B1016821F0080101600168D6
:1004400021F00101016000BF20680068C00715D0DD
:1004500000F01CF9401B0628F6D32020606503201D
:1004600084F83500002184F8341070BD8020606568
:100470000120002184F8341070BD00BFE06D3F21E1
:1004800001FA00F0B060012084F83500002000215E
:1004900084F8341070BD000090F83510022909D19D
:1004A000052180F835100068016821F00101016024
:1004B000002070478021416501207047704700008F
:1004C00043F61441C4F201010A68024214BF0860F5
:1004D0007047FFF7F3BF00002DE9F04F82B000F145
:1004E0003E4242F2004502F1FF77C4F202050A22C1
:1004F00043F6004E4FEAB726A84208BF0922C4F2CD
:10050000010E092E38BF4FEAB72201250026002729
:100510004FF00008009208E008F101080437B8F134
:10052000100F06F1020600F0A7800C6805FA08F922
:1005300014EA090FF0D0D1F804B003220BF0030C39
:10054000ACF10104B240012C6FEA020A10D88268B3
:10055000CC6802EA0A02B440224382604268CBF3CC
:10056000001422EA090204FA08F42243426005E07A
:10057000BCF1030F02D14FF0030C20E0C2688C687D
:1005800002EA0A02B4402243BCF1020FC26016D153
:100590006FF0030202EA58020244D2F820C007F0CA
:1005A0001C050F230C69AB402CEA030304FA05F584
:1005B0002B431362D1F804B001250BF0030C026841
:1005C0000CFA06F302EA0A021A431BF4403F0260E7
:1005D000A2D0002243F644030192C4F202031A6837
:1005E0004FF6084C42F480421A601A68CFF6FF7C3E
:1005F00002F480420192019A28F00302724452F8F8
:100600000C3007F00C050F24AC40A343009C04FA07
:1006100005F52B4342F80C30DEF808204B6842EA1F
:10062000090543F60C4CDC0258BF22EA0905CEF856
:100630000850C4F2010CDCF800209C0242EA0905D3
:1006400058BF22EA0905CCF80050DEF804209C03CC
:1006500042EA090558BF22EA0905CEF80450DEF83F
:100660000020DB0342EA090558BF22EA0905CEF85B
:100670000050012550E700BF02B0BDE8F08F000038
:10068000002A08BF090481617047000040F2485009
:10069000C2F200000068704740F2000040F248518A
:1006A000C2F20000C2F2000100780A68104408603B
:1006B0007047000080B543F60040C4F202000168B4
:1006C00041F400710160016841F4806101600168DA
:1006D00041F480710160032000F088F80F2000F0E1
:1006E00005F800F027F8002080BD000070B540F24A
:1006F0000006C2F2000640F208013278C2F20001A0
:100700004FF47A730968B3FBF2F20446B1FBF2F1DD
:10071000084600F043FB0F2C4FF0010508D838B90C
:100720004FF0FF3021460022002500F033F87460BE
:10073000284670BD82B0002043F640010190C4F20B
:1007400002014A6842F480424A604A6802F48042E8
:100750000192019A0090086840F080500860086893
:1007600000F080500090009802B07047002848BF09
:100770007047C1B200F01F00012202FA00F04EF2F1
:100780000012CEF2000242EAD10121F0030108601A
:100790007047000010B54EF60C5CCEF2000CDCF891
:1007A0000030C3F3022E8EF00704042C28BF04246B
:1007B000BEF103034FF0FF3E0EFA04F438BF0023EE
:1007C000A14399400EFA03F39A43114300F00F023C
:1007D00000F160430901043A03F5644362440028D0
:1007E00048BF02F10C03197010BD00004EF60C5109
:1007F000CEF200010A684FF6FF031A4060F30A22A6
:1008000042F0806040F0FD70086070472DE9F041D3
:10081000002800F08B8043F60808C4F20208044662
:10082000D8F8F8030D4600F00F00884207D288F888
:10083000F853D8F8F80300F00F00A84276D12068EA
:10084000810717D5410705D5D8F8001041F4E051CC
:10085000C8F80010010705D5D8F8001041F4604130
:10086000C8F80010D8F80010A26821F0F001114378
:10087000C8F80010C0073FD1D8F8F80300F00F0007
:10088000A84207D988F8F853D8F8F80300F00F0009
:10089000A8424BD12068410707D5D8F80010E2687C
:1008A00021F4E0511143C8F80010000708D5D8F82A
:1008B0000000216920F4604040EAC100C8F800004F
:1008C00000F07CF8D8F8001042F6A252C1F30311F0
:1008D000C0F60002515C40F2080220FA01F140F239
:1008E0000400C2F200000068C2F200021160FFF7CB
:1008F000FDFE0020BDE8F0816068811E022907D25C
:1009000058F8081C89015CBF0120BDE8F08111E0A6
:10091000012807D158F8081C89035CBF0120BDE8F5
:10092000F08107E058F8081C890703D40120BDE8CE
:10093000F08100BFD8F8001021F003010843C8F887
:100940000000FFF7A3FE064641F28837D8F8000002
:10095000616800F00C00B0EB810F8DD0FFF796FEC0
:10096000801BB842F2D90320BDE8F08140F20800B4
:1009700043F60801C2F20000C4F2020100680968EF
:1009800042F6B252C1F38221C0F60002515CC84067
:100990007047000040F2080043F60801C2F2000070
:1009A000C4F202010068096842F6B252C1F3423152
:1009B000C0F60002515CC8407047000010B543F615
:1009C0000404C4F20204606800F00C0008280BD094
:1009D000042819BF42F20040C0F2F40047F640007C
:1009E000C0F27D1010BD00BF206821682368490255
:1009F00047F64001C0F27D1100F03F02C3F38810BA
:100A00005CBF42F20041C0F2F401A1FB00010023EF
:100A1000FFF73CFC21680222C1F3014102EB4101D6
:100A2000B0FBF1F010BD00002DE9F04182B00028CC
:100A300068D00446007843F60006C007C4F20206F8
:100A40000BD0B06800F00C00042840F09F803068A4
:100A5000800302D56068002854D0207880071AD51A
:100A6000B06810F00C0F09D0B06800F00C00082836
:100A700040F0A6807068400200F1A28030688007D4
:100A800002D5E06801283DD13068216920F0F800E6
:100A900040EAC10030602078000737D42078400752
:100AA0004CD4A56955B3B06800F00C00082840F09C
:100AB000BB80012D26D07068E16900F480028A4273
:100AC00020D1216A00F03F028A421BD147F6C07153
:100AD000626A0140B1EB821F14D1A16A4FF6FF7325
:100AE000C903994300F44032A1F580318A4209D10B
:100AF000E16A00F07060B0EB016F03D1002002B03A
:100B0000BDE8F081012002B0BDE8F08160690028F5
:100B100040F20000C4F2472076D00121C0F8801EC8
:100B2000FFF7B4FD054600BF706F8007B6D4FFF72E
:100B3000ADFD401B0228F7D9DDE000BF306C10F09E
:100B400080580AD100200190306C40F08050306411
:100B5000306C00F080500190019847F20007C4F219
:100B600000073868C00541D4386840F480703860A8
:100B7000FFF78CFD054600BF3868C00536D4FFF787
:100B800085FD401B0228F7D9B5E000BFB06800F032
:100B90000C00082803D1706840023FF558AF606828
:100BA000B0F5803F07D0B0F5A02F40F08D803068C1
:100BB00040F480203060306840F4803030608DE058
:100BC000E068002852D00020C4F2472001210160D3
:100BD000FFF75CFD054600BF306880073FF554AF66
:100BE000FFF754FD401B0228F6D984E0A0680128D5
:100BF00005D005284ED1306F40F004003067306FCB
:100C000040F0010030674FE00021C0F8801EFFF780
:100C10003DFD0546706F80077FF540AFFFF736FD5D
:100C2000401B0228F6D966E00027C4F247270020BF
:100C30003866FFF72BFD022D05460BD13068800189
:100C40005ED5FFF723FD401B02284FF00300F5D9C6
:100C500055E700BF306880017FF550AFFFF716FD04
:100C6000401B02284FF00300F4D948E70020C4F2EB
:100C7000472000210160FFF709FD05463068800725
:100C80007FF509AFFFF702FD401B02284FF003007C
:100C9000F4D934E7316F002821F001013167316F59
:100CA00021F0040131674DD0FFF7F0FC054641F219
:100CB000883700BF306F800756D4FFF7E7FC401B32
:100CC000B842F7D917E000BF3168002821F480311D
:100CD0003160316821F4802131604FD0FFF7D6FCBC
:100CE000054600BF306880033FF5B7AEFFF7CEFC86
:100CF000401B6428F6D9032002B0BDE8F08100BF94
:100D000004F11C052FCD084340EA8210D9034FF6A9
:100D1000FF729143A1F5803140EA0560084370609D
:100D200001203866FFF7B2FC044600BF306880013E
:100D30003FF5E4AEFFF7AAFC001B02284FF00300CA
:100D4000F4D9DCE6FFF7A2FC054641F2883700BF84
:100D5000306F800708D5FFF799FC401BB8424FF071
:100D60000300F5D9CBE600BFB8F1000F7FF499AED0
:100D7000306C20F08050306493E600BFFFF786FCB3
:100D8000054600BF306880037FF567AEFFF77EFC45
:100D9000401B64284FF00300F4D9B0E6411E002048
:100DA000B0EB116F1CBF012070474EF21002CEF263
:100DB000000251604EF62351CEF20001F0230B7079
:100DC0000721906011607047704700007047000075
:100DD000B0B590F83C20012A04BF0220B0BD01F15B
:100DE00008053CCDD1E900CE23F47C5322F47052A7
:100DF0001A432EF4F0431A432CF4E0431A4324F42C
:100E0000C0431A432A43C96922F48042036811434C
:100E10005964002180F83C100846B0BD10B590F828
:100E20003C20012A4FF0020251D080F83D20026898
:100E3000D2F804E0D2F808C00C682EF07003234307
:100E400041F2FF74C4F20004A24253600EDC40F28F
:100E5000FF73C4F200039A4216DCB2F1804F2BD02C
:100E600040F20043C4F2000324E000BF40F2FF332D
:100E7000C4F201039A4213DC41F60003C4F20003FA
:100E80009A4219D0002313E040F60003C4F2000395
:100E90009A4211D040F60043C4F200030AE000BFBA
:100EA00044F20003C4F201039A4205D040F2004329
:100EB000C4F201039A4204D149682CF0800319431B
:100EC00091600121002280F83D1080F83C201046FE
:100ED00010BD0000002804BF0120704710B5044673
:100EE00090F83D0028B9002084F83C00204600F02E
:100EF0001FF8022084F83D002068211D01F016FB38
:100F0000012084F8460084F83E0084F83F0084F80D
:100F1000400084F8410084F8420084F8430084F8DB
:100F2000440084F8450084F83D00002010BD000016
:100F300080B582B00068B0F1804F15D00021C4F2B6
:100F4000010188420ED10020019043F64000C4F216
:100F50000200416841F001014160406800F0010079
:100F60000190019802B080BD0020009043F640003F
:100F7000C4F202000168002241F001010160006832
:100F8000002100F00100009000981C20FFF702FCF7
:100F90001C2002B0BDE88040FFF7E8BB90F83D1090
:100FA00001291CBF01207047022180F83D10006814
:100FB00041F2FF71C4F2000188420DDC40F2FF7182
:100FC000C4F20001884215DCB0F1804F2AD040F213
:100FD0000041C4F2000123E040F2FF31C4F20101FC
:100FE000884213DC41F60001C4F20001884219D0A6
:100FF000002113E040F60001C4F20001884211D044
:1010000040F60041C4F200010AE000BF44F20001D2
:10101000C4F20101884205D040F20041C4F201014E
:10102000884206D1816801F00701062904BF00202B
:101030007047016841F00101016000207047000025
:1010400090F83D1001291CBF01207047022180F853
:101050003D10006841F2FF72C168C4F20002904284
:1010600041F00101C1600DDC40F2FF71C4F20001EA
:10107000884215DCB0F1804F2AD040F20041C4F222
:10108000000123E040F2FF31C4F20101884213DC89
:1010900041F60001C4F20001884219D0002113E09A
:1010A00040F60001C4F20001884211D040F6004130
:1010B000C4F200010AE000BF44F20001C4F20101E1
:1010C000884205D040F20041C4F20101884206D1B5
:1010D000816801F00701062904BF002070470168FC
:1010E00041F00101016000207047000080B590F8D8
:1010F0003C20012A4FF0020200F0C28080F83D201F
:10110000D0F800C04FF67772DCF8083023EA02020C
:10111000CCF808200B684F2B28DC1F2B44DD202B3C
:1011200045D0302B43D0402B40F0AC80D1F804E0C8
:10113000C968DCF82030DCF8202022F00102CCF86D
:101140002020DCF8182022F0F00242EA011123F0FE
:101150000A0242EA0E02CCF81810CCF82020DCF883
:10116000081041F0470121F0300180E06F2B27DDAE
:10117000B3F5005F48D0B3F5805F7AD0702B40F0B4
:101180008180D1E901E3C968DCF8082043EA0E0355
:1011900022F47F4243EA01211143CCF80810DCF825
:1011A000081041F0770162E00BB1102B6AD1DCF836
:1011B000081021F07001194341F0070157E000BF0A
:1011C000502B35D0602B5DD1D1F804E0C968DCF834
:1011D000203023F01003CCF82030DCF81830DCF895
:1011E000202023F4704322F0A00243EA013142EAB6
:1011F0000E12CCF81810CCF82020DCF8081041F0C2
:10120000670121F0100132E0D1E901E3C968DCF89F
:10121000082043EA0E0322F47F4243EA01211143EE
:10122000CCF80810DCF8081041F480411FE000BF42
:10123000D1F804E0C968DCF82030DCF8202022F086
:101240000102CCF82020DCF8182022F0F00242EA5B
:10125000011123F00A0242EA0E02CCF81810CCF871
:101260002020DCF8081041F0570121F02001CCF8D3
:1012700008100022012180F83D10002180F83C1068
:10128000104680BD0122F5E7002804BF0120704709
:101290002DE9F047044690F83D000D4628B900209E
:1012A00084F83C00204600F049F8022084F83D0014
:1012B000206844F20702816891438160211D01F09A
:1012C00035F920684FF6FF7881688269D0F820C030
:1012D000D5E9003ED5E9026A43EA0109AB6922EA91
:1012E000080246EA03234FF6FC46B343D5E90767F5
:1012F00042EA0A0229691A4342EA062242EA011135
:101300002CF0AA026B6942EA0E0241EA073142EA76
:101310000312C0F8089081610262012084F846003F
:1013200084F83E0084F83F0084F8420084F84300CB
:1013300084F83D000020BDE8F087000080B586B04D
:10134000006840F60002C4F2000200219042CDE99C
:101350000411CDE90211019124D040F20041C4F200
:101360000001884247D1002043F630010090C4F2CA
:1013700002010A6942F002020A610A6902F00202ED
:101380000092009A0090086840F001000860086828
:10139000C02100F00100009000980020C4F202007B
:1013A0001FE000BF43F630000091C4F20200026962
:1013B00042F004020261026902F004020092009A03
:1013C0000091016841F00801016000684FF440514C
:1013D00000F00800009000980020C4F2020000F520
:1013E00040600191022102910022059101A9CDE9FD
:1013F0000322FFF771F806B080BD000080B590F8B9
:101400003E2090F83F3090F842E090F843C0042925
:101410000AD0B9B9012A4FF0010208BFBEF1010F8D
:1014200034D0104680BD00BF012B4FF0010208BF31
:10143000BCF1010FF5D1022180F83F1080F8431074
:1014400000681EE0012A4FF0010208BF012BE8D11D
:10145000BEF1010FE5D1BCF1010FE2D1022280F80B
:101460003E2080F83F2080F8422080F8432091B150
:101470000068016A21F001010162016A41F0010185
:10148000016210216FF0100209E000BF022180F814
:101490003E1080F84210006801216FF00102036ADB
:1014A0001A400262026A114301620168002241F09F
:1014B00001010160104680BD7047000010B5016851
:1014C00004460869800744BFC8685FEA807039D461
:1014D0000869400744BFC8685FEA40703ED40869A5
:1014E000000744BFC8685FEA007045D40869C006B9
:1014F00044BFC8685FEAC0604AD40869C0071CBF1F
:10150000C8685FEAC07051D10869000644BFC86866
:101510005FEA006052D40869400644BFC8685FEAC9
:10152000406053D40869800646BFC8685FEA80609F
:1015300010BD6FF0200220460A61BDE81040FFF7A1
:1015400045BC00BF6FF00200086101202077886968
:10155000800743D02046FFF7AFFF45E06FF004005F
:10156000086102202077886910F4407F40D020462F
:10157000FFF7A2FF42E000BF6FF0080008610420FF
:101580002077C86980073DD02046FFF795FF3FE0F0
:101590006FF01000086108202077C86910F4407FC0
:1015A0003AD02046FFF788FF3CE000BF6FF0010013
:1015B0000861204600F034FA2168A5E76FF080004A
:1015C00008612046FFF700FC2168A4E76FF04000A7
:1015D0000861204600F012FB2168A3E7204600F0D6
:1015E0004FF8204600F090F92168002020776FE73F
:1015F000204600F045F8204600F086F921680020DA
:1016000020776CE7204600F03BF8204600F07CF99C
:1016100021680020207769E7204600F031F8204655
:1016200000F072F921680020207766E780B586B067
:1016300001680020C4F20100814201D006B080BDE3
:10164000002143F630020191C4F20202136800F552
:10165000883043F010031360126802F01002019208
:10166000019A4FF4206201920222CDE902210491F5
:101670000121059101A9FEF72FFF06B080BD0000F2
:10168000704700002DE9F04390F83C30012B04BF77
:101690000220BDE8F0834FEAB202032A00F2FC8088
:1016A000DFE802F0023E7EBE036840F200471A6A9D
:1016B00043F4806522F001021A621C6A1A46D3F8CC
:1016C00004E052F818CF8E6824F00204C4F2010737
:1016D000BD4244EA060405D1CE6824F00C0426F08D
:1016E000040634430E68BD4207D1D1E905572EF4F4
:1016F000407E45EA0E0545EA070E2CF07307374396
:10170000C3F804E09F614F6809695F631C629F69C9
:1017100047F008079F619F6927F004079F61B1E0C8
:10172000036840F200481A6A43F4806522F0100210
:101730001A621C6A1A46D3F804C052F818EF8F6870
:1017400024F02004C4F20108454544EA071407D1F7
:10175000CF686FF0400624F0C00406EA0716344351
:10176000D1F80090454506D1D1E905562CF44067E3
:101770002E4347EA860C2EF4E64747EA0927C3F8CA
:1017800004C09F614F6809699F631C629F6947F4A9
:1017900000679F619F6927F480679F6171E000BFC8
:1017A000036840F200481A6A43F4806522F48072AC
:1017B0001A621C6A1A46D3F804C052F81CEF8F68EC
:1017C00024F40074C4F20108454544EA072408D112
:1017D000CF6840F2FF463F0224F4406427EA060641
:1017E0003443D1F80090454506D1D1E905562CF493
:1017F00040572E4347EA061C2EF0730747EA0907B5
:10180000C3F804C0DF614F680969DF631C62DF69E8
:1018100047F00807DF61DF6927F00407DF6131E087
:10182000036840F200451A6A43F4806722F480524C
:101830001A621A46D3F820C05C6852F81CEFD1F83F
:1018400000808E68C4F20105AF4204D14D6924F4D2
:10185000804444EA85142CF4005747EA06372EF4F6
:10186000E64646EA08265C60DE614E6809691E6449
:101870001F62DF6947F40067DF61DF6927F4806773
:10188000DF6109021368194311600021002280F80A
:101890003C200846BDE8F0830121002280F83C206E
:1018A0000846BDE8F0830000002804BF012070470F
:1018B00010B5044690F83D0028B9002084F83C009B
:1018C000204600F01FF8022084F83D002068211D0A
:1018D00000F02CFE012084F8460084F83E0084F8D5
:1018E0003F0084F8400084F8410084F8420084F806
:1018F000430084F8440084F8450084F83D0000204B
:1019000010BD0000704700007047000041B1082979
:1019100010D0042914BF00F1410200F13F020BE096
:1019200090F83E20012A1CBF01207047022280F857
:101930003E2013E000F140021278012A1CBF012072
:1019400070470222082907D0042914BF80F84120DB
:1019500080F83F2002E000BF80F84020006801F0DE
:101960001F010122036A02FA01F123EA0102026265
:10197000026A114341F2FF72C4F200029042016216
:101980000CDC40F2FF71C4F20001884214DCB0F1BB
:10199000804F37D040F2004116E000BF40F2FF31E7
:1019A000C4F20101884215DC41F60001C4F20001D5
:1019B000884227D0002115E040F60001C4F2000162
:1019C00088421FD040F60041C4F20001884219D07D
:1019D0001FE000BF44F20001C4F20101884211D0AF
:1019E00040F20041C4F20101884212D1416C40F240
:1019F000004340F48062C4F2010341F400419A4282
:101A0000416406D1816801F00701062904BF002066
:101A10007047016841F0010101600020704700003B
:101A2000F0B581B040F20831C2F20001086840F21E
:101A30005035406A40F27007C2F20005C2F200075A
:101A40002A683880506A40F20044788007F13800F4
:101A5000C4F2020401F058F907F15000294601F0E0
:101A600053F9386C398FBA6DF860B7F8500007F148
:101A70001405B9803A61F880284614210A2200230F
:101A800001F03EF907F12406304619210A2200230D
:101A900001F036F9B7F9381040F2D80007F1080222
:101AA000C2F2000000F020FFB7F9501040F2A81079
:101AB00007F10A02C2F2000000F016FF78894FF425
:101AC0007A72C0F13C0001B2304600F0D3FE388992
:101AD0004FF47A72C0F13C0001B2284600F0CAFE11
:101AE00040F2DC30C2F200000078613819281DD8BD
:101AF000DFE800F00E1C1C1C1C1C1C1C1C1C1C1CED
:101B00001C1C1C1C1C1C2C1C1C1C441C1C5E00BF14
:101B100040F27821C2F20001B7F9300009680022D2
:101B2000886320464FF4805137E000BF20464FF4D1
:101B300080510022FEF7A4FD04F5806001210022FF
:101B400001B0BDE8F040FEF79BBD00BF40F2782138
:101B5000C2F20001B7F9200009680022486304F5C9
:101B600080600121FEF78CFD20464FF48051012258
:101B700001B0BDE8F040FEF783BD00BF40F2782021
:101B8000C2F200000068B7F92010B7F930204163B5
:101B9000826320464FF480510122FEF771FD04F567
:101BA00080600121012201B0BDE8F040FEF768BD70
:101BB00020464FF480510022FEF762FD04F5806557
:101BC000284601210022FEF75BFD40F27820C2F298
:101BD00000000068B7F92010B7F930204163826334
:101BE00020464FF480410122FEF74AFD2846042199
:101BF000012201B0BDE8F040FEF742BD7047000091
:101C00007047000070470000B0B582B0044600681D
:101C10000168C368426901F02F05202D03F02005FB
:101C200006D12DB1204602B0BDE8B04000F028BD7D
:101C30005FEA017C1EBF02F0010E03F4907212EB0A
:101C40000E0253D1226B012A05D111F0100218BFE8
:101C500013F0100236D10A0622D513F080021FD0ED
:101C600094F83D1021293FD1A168B1F5805F03D1DF
:101C70002169002900F07282216A4A1C22620978D7
:101C80004160E18C01390A04E1842DD1C16821F061
:101C90008001C160C16841F04001C16002B0B0BDC7
:101CA000490621D513F040011ED0C16821F0400142
:101CB000C1602021204684F83D1002B0BDE8B0404C
:101CC00000F0BEBB002101910168019141680191C2
:101CD00001994069400613D4A08DE18DE28D002A60
:101CE00018BF884240F0BE8102B0B0BDCA0718BF1D
:101CF00013F4807240F0BA804A0700F1BD80C2E060
:101D0000A16B0868426893B2002BEDD0A08D83428E
:101D1000EAD2E285C969B1F5807F00F09D80206834
:101D200050E8030F216820F4807041E80302DAB123
:101D3000206850E8030F216820F4807041E8030216
:101D400092B1206850E8030F216820F4807041E8C8
:101D500003024AB1206850E8030F216820F4807024
:101D600041E80302002ADAD1206850E8050F216813
:101D700020F0010041E80502DAB1206850E8050FC3
:101D8000216820F0010041E8050292B1206850E886
:101D9000050F216820F0010041E805024AB12068E2
:101DA00050E8050F216820F0010041E80502002AF3
:101DB000DAD1206850E8050F216820F0400041E8A2
:101DC0000502DAB1206850E8050F216820F04000D4
:101DD00041E8050292B1206850E8050F216820F023
:101DE000400041E805024AB1206850E8050F21682B
:101DF00020F0400041E80502002ADAD1202084F8D2
:101E00003E0000202063206850E8030F216820F086
:101E1000100041E80302DAB1206850E8030F21689E
:101E200020F0100041E8030292B1206850E8030F4F
:101E3000216820F0100041E803024AB1206850E810
:101E4000030F216820F0100041E80302002ADAD1D4
:101E5000A06BFEF7D9FAA08DE18D401A81B2204621
:101E600002B0BDE8B040FFF7CBBE00BF226C42F02D
:101E7000010222644A0706D5BEF1000F03D0226C8E
:101E800042F0020222648A0706D5BEF1000F03D099
:101E9000226C42F004022264BCF1000F09D545EA2D
:101EA0000E02B2FA82F2520903D1226C42F0080209
:101EB0002264226C002A3FF417AF11F0200118BFF2
:101EC000002D03D0204600F0DBFB20684069216C28
:101ED00000F0400001F00801401800F0B58000BF9C
:101EE000206850E8030F216820F4907041E8030255
:101EF000BAB3206850E8030F216820F4907041E8DD
:101F0000030272B3206850E8030F216820F4907038
:101F100041E803022AB3206850E8030F216820F447
:101F2000907041E80302002ADAD11AE0206850E8F4
:101F3000050F216820F0010041E80502DAB12068B0
:101F400050E8050F216820F0010041E8050292B138
:101F5000206850E8050F216820F0010041E80502E3
:101F60004AB1206850E8050F216820F0010041E8DF
:101F70000502002ADAD1206B012824D1206850E81C
:101F8000030F216820F0100041E80302DAB1206855
:101F900050E8030F216820F0100041E8030292B1DD
:101FA000206850E8030F216820F0100041E8030288
:101FB0004AB1206850E8030F216820F0100041E882
:101FC0000302002ADAD1202084F83E00002020639A
:101FD0002068406940063FD5206850E8050F216819
:101FE00020F0400041E80502DAB1206850E8050F12
:101FF000216820F0400041E8050292B1206850E8D5
:10200000050F216820F0400041E805024AB1206830
:1020100050E8050F216820F0400041E80502002A41
:10202000DAD1A06BC0B142F27561C0F60001016562
:10203000FEF732FA00283FF457AEA06B016D02B0F4
:10204000BDE8B040084700BF2046FFF7DBFD002099
:10205000206402B0B0BD00BF204602B0BDE8B04071
:10206000FFF7D0BD401A216851E8031F226821F410
:10207000907142E80313DBB1216851E8031F226825
:1020800021F4907142E8031393B1216851E8031FD2
:10209000226821F4907142E803134BB1216851E8A2
:1020A000031F226821F4907142E80313002BDAD158
:1020B000216851E8051F226821F0010142E805135B
:1020C000DBB1216851E8051F226821F0010142E8D7
:1020D000051393B1216851E8051F226821F0010121
:1020E00042E805134BB1216851E8051F226821F031
:1020F000010142E80513002BDAD1202184F83E10BB
:1021000000212163216851E8031F226821F010019A
:1021100042E80313002B3FF4A1AE216851E8031FEE
:10212000226821F0100142E80313002B3FF496AE21
:10213000216851E8031F226821F0100142E80313CF
:10214000002B3FF48BAE216851E8031F226821F079
:10215000100142E80313002BD4D17FE6216A31F845
:10216000022B6FF35F22426021628AE5002804BFE0
:102170000120704710B5044690F83D0028B90020B2
:1021800084F83C00204600F021F8242084F83D002B
:102190002068C16821F40051C160204600F0F0FAC7
:1021A0002068016921F490410161416921F02A010F
:1021B0004161C16841F40051C160002020212064C8
:1021C00084F83D1084F83E1010BD00002DE9F04366
:1021D00085B0006845F20005C4F20005A84203D0AE
:1021E00005B0BDE8F08300BF002643F6300000963E
:1021F000C4F2020001696C4641F480110161016979
:102200004FF0020801F480110091009900960168D6
:102210004FF0030941F0040101600168082701F053
:102220000401009100990096016841F008010160E5
:102230000068214600F00800009000984FF480509C
:10224000009005F5DC30CDE90186CDF80C900497BF
:10225000FEF742F90420CDE9000805F5DE302146FD
:10226000CDE902690497FEF737F9352000210022F5
:10227000FEF790FA3520FEF779FA05B0BDE8F08355
:102280002DE9F04381B0044690F83E0020280DD19E
:102290000E4600294FF0010000F0CC801746002ABE
:1022A00000F0C88094F83C00012803D1022001B05E
:1022B000BDE8F083012084F83C00002022211D4667
:1022C000206484F83E102063FEF7E0F9A785E785D7
:1022D000A1680746B1F5805F01D1206910B1B04611
:1022E000002601E04FF00008002084F83C00E08D5B
:1022F000002800F09B8005F101090DE040684FF0D7
:1023000000086FF35F2026F8020BE08D0138E085AE
:10231000E08D002800F08A802068016889060DD4CD
:10232000B9F1000F18D04DB3FEF7B0F9C01BA842A9
:1023300024D8206801688906F6D500BFB8F1000FDF
:10234000DCD0A168B1F5805F14D009B9216989B1E9
:10235000406800F07F000EE001688906EED4016855
:1023600089065CBF01685FEA8161E7D4016889067C
:10237000F2D5E3E7406808F8010BC6E7206850E8AB
:10238000030F216820F4D07041E80302E2B1206815
:1023900050E8030F216820F4D07041E803029AB19D
:1023A000206850E8030F216820F4D07041E8030250
:1023B00052B1206850E8030F216820F4D07041E842
:1023C0000302002ADAD100BF206850E8050F216817
:1023D00020F0010041E80502DAB1206850E8050F5D
:1023E000216820F0010041E8050292B1206850E820
:1023F000050F216820F0010041E805024AB120687C
:1024000050E8050F216820F0010041E80502002A8C
:10241000DAD1202084F83D0084F83E00002084F8C2
:102420003C00032001B0BDE8F08300BF202084F809
:102430003E00002001B0BDE8F083000070470000BE
:1024400070470000FEE70000FEE70000FEE7000026
:102450007047000070470000FEF71EB9B0B592B09B
:10246000002443F640000B94CDE90944CDE907442C
:102470000594CDE90344CDE901440094C4F202007F
:102480000168022541F080510160006800F0805031
:102490000090009847F200000094C4F20000016828
:1024A00041F440410160006800F440400090009811
:1024B0000120099010200A9008200E90A020CDE95C
:1024C0000F050420119006A80695CDE90C54FEF7DF
:1024D000ABFA28B1EFF3108072B600BFFEE700BF81
:1024E0000F20CDE901054FF4A05004904FF4805027
:1024F000059001A805210394FEF788F920B1EFF3B8
:10250000108072B6FEE700BF12B0B0BD4EF6885024
:10251000CEF20000016841F47001016070470000D4
:1025200040F2C020C2F20000FEF7C8BF10B540F66E
:10253000FF3E0368C4F2000E40F2004C7045C4F246
:10254000010C27DCB0F1804F31D040F20042C4F2E0
:10255000000290422BD040F60002C4F200029042EA
:1025600025D041F6FF72C4F20002904229DC70458A
:102570003CDCB0F1804F5FD040F20042C4F2000278
:10258000904259D040F60002C4F20002904253D06B
:1025900056E000BF40F60042C4F20002904206D06E
:1025A000604504D00022C4F201029042D9D14A68A9
:1025B00023F07003134341F6FF72C4F2000290420D
:1025C000D5DD43F6FF72C4F20102904222DC42F2F2
:1025D0000002C4F2000290422ED00022C4F2010296
:1025E000904229D0604527D02AE000BF40F6004243
:1025F000C4F2000290421FD041F60002C4F2000271
:10260000904219D041F60042C4F20002904213D029
:1026100016E000BF44F20002C4F2010290420BD067
:1026200044F60002C4F20102904205D044F2004296
:10263000C4F20102904203D1CA6823F440731343E9
:1026400023F080024B69D1F800E08C681A430260E5
:10265000C46240F48062C0F828E0624504BF0969A2
:1026600001630121416110BD40F29830C2F20000C7
:10267000FFF7CABA806B0021C185C184FFF7C2BAD7
:1026800081B090F83E10222921D183680246B3F52B
:10269000805F09D152F8281F52F8183C002B63D0F4
:1026A00003685B680AE000BF52F8281F13B903698A
:1026B000002BF5D003685B6803F07F030B70116893
:1026C00001311160C18D01390A04C18502D001B008
:1026D000704700BF0168CA6822F02002CA60CA6859
:1026E00022F48072CA604A6922F001024A61202104
:1026F00080F83E10016B01293ED10021016300BF2B
:10270000016851E8031F026821F0100142E8031339
:10271000DBB1016851E8031F026821F0100142E8B3
:10272000031393B1016851E8031F026821F01001FF
:1027300042E803134BB1016851E8031F026821F01E
:10274000100142E80313002BDAD101680A68D206AF
:1027500006D5002200920A6800924968009100990B
:10276000818D01B0FFF74CBA026852686FF35F22A7
:1027700021F8022B8162A5E701B0FFF75FBE0000E0
:1027800010B504460068D4E902C22369016921F446
:10279000405111430161626943EA0C01E36911434D
:1027A000C268194349F20C639A431143C1604169FD
:1027B000A26921F4407141F20043114340F4806268
:1027C000C4F201039A42416102D1FEF7E3F801E04D
:1027D000FEF7CCF8E16963681922B1F5004FA0FB60
:1027E000020123D15A00DB0FFDF750FD48F21F51C3
:1027F000C5F2EB11A0FB01235A094FF69C73C0F6FA
:10280000FF7303F1805302FB0300322303EBC0008C
:10281000A0FB01014FF4F87000EA111000EB021068
:10282000C1F3421108442168886010BD9A009B0FD3
:10283000FDF72CFD48F21F51C5F2EB11A0FB01235F
:102840005A094FF69C73C0F6FF7302FB0300322354
:1028500003EB0010A0FB0101F02000EA511000EB97
:102860000210C1F3431108442168886010BD0000C4
:10287000FEE7000010B5836848F2804403EB010CCA
:10288000C0F21E04A445B8BF644647F6803CCFF6AC
:10289000E17C6445D8BF644690F801C090F800E040
:1028A00004FB0CF393FBF2F390F802C01EFB013E15
:1028B00083880CFB02F2CB1A02FB03E284604EF227
:1028C000C00413B2CFF6FF7413F5FA5FC8BF1C46FD
:1028D00000231204C1F63F739A42C8BF4FF4FA5462
:1028E0008481818010BD000010B5B0F8C840D0F8D8
:1028F000CCE030F914C020F81410A1EB0C03B0F8B0
:10290000C810734401318CB2643CC0F8CC3018BF9D
:102910000C4648F21F51C5F2EB1153FB01F14B116C
:1029200003EBD171A0F8C840A0F8CA10118010BD07
:1029300098B040F20048C4F20208FDF7BBFEFFF772
:102940008DFD002743F6300005970A97C4F2020078
:10295000016808F5806541F004010160016800220A
:1029600001F004010A910A990A970168052441F0CF
:1029700001010160016801F001010A910A990A97B9
:10298000016841F010010160016801F010010A9135
:102990000A990A97016841F002010160016801F09B
:1029A00002010A910A990A97016841F00801016041
:1029B0000068052100F008000A900A982846FDF7F3
:1029C0005FFE40464FF4A04100224FF4A049FDF7BE
:1029D00057FE01AE0194012428463146CDE9024755
:1029E0000497FDF779FD4FF48810CDE90207A8F5AB
:1029F000806031460194FDF76FFD40463146CDE9D8
:102A00000194CDE90377FDF767FD06200021002240
:102A1000FDF7C0FE0620FDF7A9FE40F20830A8F53C
:102A20000031C2F20000C0E9001703214FF6FF7227
:102A3000CDE9011701A9CDE90A77C0E90272076162
:102A40008761CDE90347CDE90577CDE907470997C8
:102A5000FEF71AFC20B1EFF3108072B6FEE700BF5C
:102A600040F20830C2F200000AA9FEF7D7F928B1F7
:102A7000EFF3108072B600BFFEE700BF40F20830EF
:102A8000C2F200003C21FEF7B9FC40F2C020002158
:102A9000C2F200004FF080424F2340F2E73704912A
:102AA000CDE90211CDE90A11C0E90023C0E90217FE
:102AB00001618161FEF70EFA20B1EFF3108072B66A
:102AC000FEE700BF4FF48050019040F2C020C2F2F8
:102AD000000001A9FEF70AFB20B1EFF3108072B6E7
:102AE000FEE700BF40F2C020C2F200000AA9FEF7D4
:102AF00095F928B1EFF3108072B600BFFEE700BF72
:102B000040F2C025C2F200052846FEF799FA284691
:102B1000FEF744FA40F250300021A8F5FE32C2F22E
:102B20000000C0E9002103224FF6FF73CDE9012127
:102B30000122CDE90A11C0E9021301618161CDE9E9
:102B40000321CDE90511CDE90721099101A9FEF77E
:102B50009BFB28B1EFF3108072B600BFFEE700BF09
:102B600040F25030C2F200000AA9FEF757F928B12E
:102B7000EFF3108072B600BFFEE700BF40F25030A6
:102B8000C2F200003C21FEF739FC40F2782000211F
:102B9000A8F58232C2F2000042F20F731791CDE91C
:102BA0001511CDE912110791C0E90021C0E9021306
:102BB000C0E904118161FEF78DF928B1EFF31080AF
:102BC00072B600BFFEE700BF4FF48050149040F291
:102BD0007820C2F2000014A9FEF788FA20B1EFF3C2
:102BE000108072B6FEE700BF40F27820C2F200000B
:102BF000FEF75AFE20B1EFF3108072B6FEE700BF79
:102C000040F27820C2F2000012A9FEF707F918B1CD
:102C1000EFF3108072B6FEE760200A900020CDE945
:102C20000B00CDE90D00CDE90F0040F27820C2F293
:102C300000000AA90022FEF725FD18B1EFF310806D
:102C400072B6FEE740F27820C2F200000AA9042220
:102C5000FEF718FD20B1EFF3108072B6FEE700BF5B
:102C60004FF40050069040F278200024C2F2000099
:102C700001A90594CDE90344CDE901440894FEF788
:102C8000A7F818B1EFF3108072B6FEE740F278258E
:102C9000C2F200052846FEF781F928460021FEF71A
:102CA00035FE28460421FEF731FE2846FEF7BEFC1D
:102CB00040F29830A8F5DA31C2F200000C234FF44C
:102CC000165280E81600C0E90344C0E90534C46127
:102CD000FFF74CFA20B1EFF3108072B6FEE700BFA9
:102CE00040F2983440F2DC35C2F20004C2F2000532
:102CF0002046294614224FF47A73FFF7C1FAF7E70A
:102D0000017042708370704780B50A6840F2445386
:102D1000C2F20003D2F824E0197829B103699E4574
:102D200012D10022028003E00022012102801970EA
:102D3000D0E9021312B2891800F1080043EBE272E5
:102D400080E8064080BD00BF11689E4501F0100C70
:102D500006D9BCF1000F0DD1AEEB03020280E7E70C
:102D6000BCF1000F0CD1D16AAEEB03020A44028021
:102D7000DEE700BFD16A1944AEEB01020280D7E75B
:102D8000AEEB03020280D3E7F1EE100A4FF6FF71BB
:102D9000C0F2C03120EA010040F04070E1EE100ABC
:102DA0007047000000000000000001020304060755
:102DB000080900000000010203040000E02D0008E3
:102DC0000000002010000000E8010008F02D0008BD
:102DD00010000020400B000004020008000000006A
:102DE00001000000100000000024F40000000000BA
:04000005080001AD41
:00000001FF
